:100000000C94F4000C9413010C9413010C94130140
:100010000C9413010C9413010C9413010C94130110
:100020000C9413010C9413010C9413010C94130100
:100030000C9413010C9413010C9413010C941301F0
:100040000C9413010C9413010C9413010C941301E0
:100050000C9413010C9413010C9413010C941301D0
:100060000C9413010C9413010C9413010C941301C0
:100070000C9413010C9413010C9413010C941301B0
:100080000C9413010C9413010C9413010C941301A0
:100090000C9413010C9413010C9413010C94130190
:1000A0000C9413010C9413010C9413010C94130180
:1000B0000C9413010C9413010C9413010C94130170
:1000C0000C9413010C9413010C9413010C94130160
:1000D0000C9413010C9413010C9413010C94130150
:1000E0000C9413010C9413010C9413010C94130140
:1000F0000C9413010C94EC030C9416040C9413014F
:100100000C9413010C9413010C9413010C9413011F
:100110000C9413010C9413010C9413010C9413010F
:100120000C9413010C9413010C9413010C941301FF
:100130000C9413010C9413010C9413010C941301EF
:100140000C9413010C9413010C9413010C94C1052D
:100150000C9413010C9413010C9413010C941301CF
:100160000C9413010C9413010C9413010C94CB0503
:100170000C9413010C9413010C9413010C941301AF
:100180000C9413010C9413010C9413010C9413019F
:100190000C9413010C9413010C9413010C9413018F
:1001A0000C9413010C9413010C9413010C9413017F
:1001B0000C9413010C9413010C9413010C9413016F
:1001C0000C9413010C9413010C9413010C9413015F
:1001D0000C9413010C9413010C9413010C9413014F
:1001E0000C9413010C94130111241FBECFEFDFE216
:1001F000DEBFCDBF11E2A0E0B0E2E6E4F0E100E056
:100200000BBF02C007900D92A637B107D9F716E2CF
:10021000A6E7B1E201C01D92A235B107E1F70E9445
:1002200014070C9421080C940000E0E0F8E022E0B0
:1002300020838181887F836081838FEF9FEF86A3F6
:1002400097A3A0E4B6E05FE011965C93119710AE1F
:1002500011AE12AE13AE14AE15AE10923E0810924F
:100260003F083181306131833181306231833181A6
:1002700030643183318130683183E0E4F8E02083F9
:100280003181387F3360318386A397A340E3119691
:100290004C9310AE11AE12AE13AE3181306131838A
:1002A000318130623183E0E0F9E020833181387FB1
:1002B0003360318386A397A337E0A0E6B6E01196BA
:1002C0003C9310AE11AE12AE13AE14AE15AE31812A
:1002D00030613183318130623183318130643183E7
:1002E000E0E0FAE020833181387F3360318386A3F8
:1002F00097A3A0E8B6E011965C93119710AE11AEEB
:1003000012AE13AE14AE15AE10923E0A10923F0A12
:1003100031813061318331813062318331813064A8
:100320003183318130683183E0E4FAE02083318128
:10033000387F3360318386A397A311964C9310AE18
:1003400011AE12AE13AE3181306131833181306232
:100350003183E0E0FBE020832181287F236021833B
:1003600086A397A38EE0A0EAB6E011968C9312AE16
:1003700013AE14AE15AE10923E0B10923F0B81815E
:1003800080628183818180648183818180688183AF
:100390000895CF93DF9340E052E069EB71E289EB7F
:1003A00093E20E947B06E0E8F6E080E8818380E447
:1003B0008283C0EBDAE08D818F738D8383E08D8340
:1003C00040E855E260E070E080EB9AE00E94F905B9
:1003D0008C8180618C838C8188608C838B818F7C05
:1003E00080628B838B818C7F8B83DF91CF9108958B
:1003F0000895682F89EB93E20E94B906E0EBFAE0DA
:1004000083818C7F816083830895CF93DF93EC0198
:100410008991882319F00E94F901FACFDF91CF91D9
:1004200008950F931F93CF93DF938B01EC01080F77
:10043000191FC017D10761F0699189EB93E20E94FF
:10044000B9068091B30A8C7F81608093B30AF1CFA3
:10045000DF91CF911F910F9108951F93CF93DF9359
:10046000CDB7DEB76097CDBFDEBF182F80E1E0E0EB
:10047000F0E2DE01119601900D928A95E1F7812F4D
:1004800082958F70E1E0F0E0EC0FFD1FE80FF11DA9
:1004900080810E94F9011F70E1E0F0E0EC0FFD1F88
:1004A000E10FF11D80816096CDBFDEBFDF91CF915E
:1004B0001F910C94F901CF93C82F892F0E942D0210
:1004C0008C2FCF910C942D02CF93DF93E091B62126
:1004D0008D3019F08A3009F060C1F0E0EA58FE4D25
:1004E00010828AE00E94F90169E170E286E791E2F8
:1004F0000E94BB07892B99F48EE190E20E940502CD
:100500008DE390E20E94050284E590E20E940502DC
:100510008DE690E20E94050281EC90E236C164E82B
:1005200070E286E791E20E94BB07892B49F06AE8F6
:1005300070E286E791E20E94BB07892B09F04BC06D
:100540008FEF9FEF809338089093390880933A0893
:1005500090933B0880933C0890933D0880933E081D
:1005600090933F08809378089093790880937A0855
:1005700090937B08809338099093390980933A09C6
:1005800090933B0980933C0990933D0980933A0BEB
:1005900090933B0B80933C0B90933D0B80933E0BD1
:1005A00090933F0B80933E0A90933F0A8093780A82
:1005B0009093790A80937A0A90937B0A8093380A01
:1005C0009093390A80933A0A90933B0A80933C0AAD
:1005D00090933D0AD8C06DE870E286E791E20E94F0
:1005E000BB07892B09F049C01092380810923908CE
:1005F00010923A0810923B0810923C0810923D0865
:1006000010923E0810923F081092780810927908D4
:1006100010927A0810927B081092380910923909CA
:1006200010923A0910923B0910923C0910923D0930
:1006300010923A0B10923B0B10923C0B10923D0B18
:1006400010923E0B10923F0B10923E0A10923F0AFE
:100650001092780A1092790A10927A0A10927B0A04
:100660001092380A1092390A10923A0A10923B0AF4
:1006700010923C0A10923D0A86C044E050E061E9C5
:1006800070E286E791E20E94C407892B79F5809198
:10069000B6218430E9F0863030F180917A218032C1
:1006A00011F58BE791E20E949D07811522E09207E8
:1006B00018F084EA90E269C08093B7219093B82142
:1006C0006091B7217091B82184E290E00E941308F4
:1006D00086E990E20E9405028091B7219091B821AD
:1006E0000E945B0250C08BEB90E24FC060EF70E263
:1006F00086E791E20E94BB07892B09F048C084EF8E
:1007000090E20E94050281E091E20E94050281E2EE
:1007100091E20E94050280915026909151260E94FC
:100720005B028FE191E20E94050285E391E20E9463
:1007300005028091E5239091E6230E945B028FE100
:1007400091E20E94050286E491E20E9405028091F6
:10075000EB230E942D028FE191E20E9405028AE5BF
:1007600091E20E940502C1E0D0E0FE01E551FC4D9E
:1007700080810E942D0281E791E20E94050221966C
:10078000C730D10591F78FE191E20E9405028EE317
:100790000E94F9011092B6211CC0883061F4EE234A
:1007A000C1F0E150E093B6210E94F90180E20E947D
:1007B000F90188E00AC0E03460F491E09E0F909364
:1007C000B621F0E0EA58FE4D8083DF91CF910C9482
:1007D000F901DF91CF9108951F920F920FB60F92FA
:1007E00011240BB60F922F933F934F935F936F9308
:1007F0007F938F939F93AF93BF93EF93FF938091DA
:10080000B00A0E946402FF91EF91BF91AF919F9156
:100810008F917F916F915F914F913F912F910F90A9
:100820000BBE0F900FBE0F901F9018951F920F9246
:100830000FB60F9211240BB60F922F933F934F9345
:100840005F936F937F938F939F93AF93BF93EF9338
:10085000FF93CF93DF931F92CDB7DEB7BE016F5FDB
:100860007F4F89EB93E20E94850689818093B00ACD
:1008700089EB93E20E94F006882329F08091B30A65
:100880008C7F8093B30A0F90DF91CF91FF91EF910E
:10089000BF91AF919F918F917F916F915F914F9198
:1008A0003F912F910F900BBE0F900FBE0F901F9096
:1008B00018958CE192E08093B7219093B82144E29F
:1008C00050E060E070E081EC93E20E94DA078091F2
:1008D000B7219091B821019621F41092B72110927E
:1008E000B82180E4809362068091B5098F7380936C
:1008F000B5098BE08093B50940E950ED63E070E005
:1009000080EB99E00E94F9058091B40980618093A1
:10091000B4098091B3098F7C80628093B30985E02C
:100920008093400980914109887F8093410980919B
:1009300041098061809341091092502610925126FE
:100940001092E5231092E6231092E7231092E823F9
:100950001092E9231092EA230895CF93DF93E09158
:10096000B721F091B821E80FF91F8081889FC0015D
:100970001124A0E0B8E0D8968D939C93D9978181FB
:10098000889FC0011124DA968D939C93DB97828116
:10099000889FC0011124DC968D939C93DD97838101
:1009A000889FC001112480933E0890933F08848162
:1009B000889FC0011124A0E4B8E0D8968D939C9341
:1009C000D9978581889FC0011124DA968D939C93D5
:1009D000DB978681889FC0011124A0E0B9E0D896FA
:1009E0008D939C93D9978781889FC0011124DA96B3
:1009F0008D939C93DB978085889FC0011124DC96A2
:100A00008D939C93DD978185889FC0011124A0E080
:100A1000BBE0DA968D939C93DB978285889FC0011B
:100A20001124DC968D939C93DD978385889FC0016C
:100A3000112480933E0B90933F0B8485889FC001C7
:100A40001124A0E0BAE080933E0A90933F0A858586
:100A5000889FC0011124C0E4DAE088AF99AF868591
:100A6000889FC00111248AAF9BAF8785889FC001F2
:100A70001124D8968D939C93D9978089889FC00123
:100A80001124DA968D939C93DB978189889FC0010E
:100A90001124DC968D939C93DD97DF91CF9108957F
:100AA000E1ECF3E2DC012D91CD012193B3E2E33DD2
:100AB000FB07C1F744E250E060E070E081EC93E2B4
:100AC0000C94E6078091600990916109880F991F45
:100AD00081159A4F20F081EC93E20E94AD042091A1
:100AE000E5233091E6238091B7219091B821439678
:100AF0002817390748F18091600990916109880FA2
:100B0000991F8639910500F11092600910926109D0
:100B10001092E5231092E6238091EB23811105C00A
:100B20008DEE93E20E94AD0406C0813021F48DEE7B
:100B300093E20E9450058091502690915126019693
:100B400080935026909351260895E091E523F091EB
:100B5000E623E551FC4D80838091E5239091E623C7
:100B600001968093E5239093E6238091E52390916D
:100B7000E6238935924020F01092E5231092E62377
:100B800008951F920F920FB60F9211240F900FBE6F
:100B90000F901F9018951F920F920FB60F9211246D
:100BA0000BB60F922F933F934F935F936F937F9367
:100BB0008F939F93AF93BF93EF93FF938091B0096F
:100BC0000E94A505E0E4F9E010A211A2FF91EF91C7
:100BD000BF91AF919F918F917F916F915F914F9155
:100BE0003F912F910F900BBE0F900FBE0F901F9053
:100BF0001895CF92DF92EF92FF92CF93DF93EC01A3
:100C00009A01AB0160E070E482E49FE00E947B0700
:100C1000205831094109510989EF69017A01CC2431
:100C200090EFD922EE24FF24CD28CE28CF2831F012
:100C300056954795379527958F5FEFCF2E836F8118
:100C4000932F9F70607F962B9F832F8130E18302CB
:100C5000C00111242F70282B2F83DF91CF91FF909B
:100C6000EF90DF90CF900895CF93DF93EC018D81CB
:100C70008F738D8383E08D8340E05BE460E070E000
:100C8000CE010E94F9058C8180618C838C81886003
:100C90008C83DF91CF910895809150008260809382
:100CA00050008091510081FFFCCF88ED84BF81E02E
:100CB00080934000809150008E7F8093500080E0B0
:100CC00090E008958BEC80935200809150008860F2
:100CD000809350008091510083FFFCCF88ED84BF4A
:100CE00083E080934000809150008E7F809350007D
:100CF00080E090E00895FC0160837183128213828A
:100D000014821582468357830895FC01848195815E
:100D10002281338128173907A1F0A081B181A80F62
:100D2000B91F8C91DB018C9384819581019684831A
:100D30009583268137818217930728F014821582C4
:100D400002C081E0089580E00895FC012281338192
:100D50002F5F3F4F868197812817390711F420E0D4
:100D600030E081E0448155812417350709F080E0A7
:100D700008950F931F93CF93DF931F92CDB7DEB7E4
:100D80008C0169830E94A5066981811120C0D80168
:100D9000ED91FC91119712968D919C911397E80F0C
:100DA000F91F608312968D919C911397019612966C
:100DB0008D939C93139716962D913C9117978217BC
:100DC000930738F012961D921C92139702C081E08F
:100DD00001C080E00F90DF91CF911F910F91089596
:100DE000FC0181E042815381248135814217530700
:100DF00009F080E00895FC0122813381848195818E
:100E0000281B390B37FF04C0C901809590950895C0
:100E1000868197810197821B930B0895FC011282B2
:100E200013821482158208950E944C060E941501B7
:100E30000E94C9010E94590480E190E20E940502CB
:100E40008091A20081608093A2008091A2008260C4
:100E50008093A20078948FEF90E08093380890936D
:100E6000390810923A0810923B0810923C081092F0
:100E70003D0880933E0890933F08109278081092A6
:100E8000790810927A0810927B0880933809909321
:100E9000390910923A0910923B0910923C091092BC
:100EA0003D0980933A0B90933B0B10923C0B1092B0
:100EB0003D0B10923E0B10923F0B80933E0A909395
:100EC0003F0A1092780A1092790A10927A0A1092C8
:100ED0007B0A8093380A9093390A10923A0A10924A
:100EE0003B0A10923C0A10923D0A60E070E0CB0190
:100EF0000E946205FACFA1E21A2EAA1BBB1BFD01BC
:100F00000DC0AA1FBB1FEE1FFF1FA217B307E407E8
:100F1000F50720F0A21BB30BE40BF50B661F771F40
:100F2000881F991F1A9469F7609570958095909520
:100F30009B01AC01BD01CF010895FC0188279927D1
:100F4000E89421912032E9F3293010F02E30C8F3D3
:100F50002B3241F02D3239F4689404C00E94D2073C
:100F6000820F911D219120532A30C0F31EF49095D9
:100F700081959F4F0895FB01DC018D9101908019AF
:100F80000110D9F3990B0895FB01DC014150504049
:100F900030F08D910190801919F40020B9F7881B69
:100FA000990B08957AE0979F902D879F802D910D42
:100FB00011240895E0ECF1E0A785A7FDFDCFA485FD
:100FC000A860A4876050704F0C941808DC01CB0116
:100FD00003C02D910E94F10741505040D0F7089571
:100FE000262FE0ECF1E0378537FDFDCF3485377FE4
:100FF0003487378531FF09C036E3328738ED34BF97
:1010000031E03387378537FDFDCF33E33287808387
:1010100091831282248325E3228728ED31E024BFC7
:101020003387019608950E94F007272F0C94F1074B
:10103000FB01DC0102C001900D9241505040D8F7F5
:061040000895F894FFCFB3
:1010460030313233343536373839414243444546F8
:10105600524553544152540A0068656C70006865E5
:101066006C700909446973706C61792074686973DE
:101076002068656C7020746578742E0A006F6E099E
:10108600095475726E20616C6C206C656473206FF8
:101096006E2E0A006F666609095475726E20616CC1
:1010A6006C206C656473206F66662E0A00646D782A
:1010B600090953686F7720646D78207374617475BD
:1010C600732E0A007365747570006F6E006F666626
:1010D600006164647200444D5820616464726573F3
:1010E600733A20006572726F723A206164647265A9
:1010F6007373203E3D203531320A00757361676592
:101106002061646472203C7878783E090953686FE0
:10111600772F73657420646D782073746172742000
:101126006164647265737320746F207878780A003E
:10113600646D7800444D58207374617475733A0A6F
:10114600002D2D2D2D2D2D2D2D2D2D2D2D2D2D2DF6
:101156002D2D2D2D2D2D2D2D2D2D2D2D2D2D2D0ADC
:10116600005265636569766564206672616D6573B4
:101176003A203078004279746520636F756E746525
:10118600723A203078004C61737420636F6D6D6124
:101196006E6420627974653A200046697273742021
:1011A600627974657320696E206672616D653A0AAC
:0611B60000202D200000C6
:00000001FF
