:100000000C94F4000C9413010C9413010C94130140
:100010000C9413010C9413010C9413010C94130110
:100020000C9413010C9413010C9413010C94130100
:100030000C9413010C9413010C9413010C941301F0
:100040000C9413010C9413010C9413010C941301E0
:100050000C9413010C9413010C9413010C941301D0
:100060000C9413010C9413010C9413010C941301C0
:100070000C9413010C9413010C9413010C941301B0
:100080000C9413010C9413010C9413010C941301A0
:100090000C9413010C9413010C9413010C94130190
:1000A0000C9413010C9413010C9413010C94130180
:1000B0000C9413010C9413010C9413010C94130170
:1000C0000C9413010C9413010C9413010C94130160
:1000D0000C9413010C9413010C9413010C94130150
:1000E0000C9413010C9413010C9413010C94130140
:1000F0000C9413010C94E8030C9412040C94130157
:100100000C9413010C9413010C9413010C9413011F
:100110000C9413010C9413010C9413010C9413010F
:100120000C9413010C9413010C9413010C941301FF
:100130000C9413010C9413010C9413010C941301EF
:100140000C9413010C9413010C9413010C949A0554
:100150000C9413010C9413010C9413010C941301CF
:100160000C9413010C9413010C9413010C94A4052A
:100170000C9413010C9413010C9413010C941301AF
:100180000C9413010C9413010C9413010C9413019F
:100190000C9413010C9413010C9413010C9413018F
:1001A0000C9413010C9413010C9413010C9413017F
:1001B0000C9413010C9413010C9413010C9413016F
:1001C0000C9413010C9413010C9413010C9413015F
:1001D0000C9413010C9413010C9413010C9413014F
:1001E0000C9413010C94130111241FBECFEFCDBF4B
:1001F000DFE2DEBF11E2A0E0B0E2E2EDFFE000E00E
:100200000BBF02C007900D92A838B107D9F726E2BC
:10021000A8E8B1E201C01D92A034B207E1F70E9444
:10022000EF060C94E7070C940000E0E0F8E022E011
:1002300020838181887F836081838FEF9FEF86A3F6
:1002400097A3A0E4B6E05FE011965C93119710AE1F
:1002500011AE12AE13AE14AE15AE10923E0810924F
:100260003F083181306131833181306231833181A6
:1002700030643183318130683183E0E4F8E02083F9
:100280003181387F3360318386A397A340E3119691
:100290004C9310AE11AE12AE13AE3181306131838A
:1002A000318130623183E0E0F9E020833181387FB1
:1002B0003360318386A397A337E03093610610AE95
:1002C00011AE12AE13AE14AE15AE31813061318372
:1002D000318130623183318130643183E0E0FAE092
:1002E00020833181387F3360318386A397A3A0E8D0
:1002F000B6E011965C93119710AE11AE12AE13AE2C
:1003000014AE15AE10923E0A10923F0A3181306150
:100310003183318130623183318130643183318185
:1003200030683183E0E4FAE020833181387F336044
:10033000318386A397A311964C9310AE11AE12AEE3
:1003400013AE318130613183318130623183E0E03D
:10035000FBE020832181287F2360218386A397A34C
:100360008EE08093A10612AE13AE14AE15AE1092BD
:100370003E0B10923F0B818180628183818180647A
:1003800081838181806881830895CF93DF9340E0EA
:1003900052E06BEC71E28BEC93E20E945606E0E8CF
:1003A000F6E080E8818380E48283C0EBDAE08D812F
:1003B0008F738D8383E08D8340E855E260E070E0C9
:1003C00080EB9AE00E94D2058C8180618C838C81C5
:1003D00088608C838B818F7C80628B838B818C7F08
:1003E0008B83DF91CF9108950895682F8BEC93E272
:1003F0000E949506E0EBFAE083818C7F8160838325
:100400000895CF93DF93EC018991882319F00E941E
:10041000F501FACFDF91CF9108950F931F93CF93FA
:10042000DF93EC018C01060F171FC017D10761F095
:1004300069918BEC93E20E9495069091B30A9C7FA0
:1004400091609093B30AF1CFDF91CF911F910F91FB
:1004500008951F93CF93DF93CDB7DEB76097CDBFDD
:10046000DEBF182F80E1E2E1F0E2DE01119601909B
:100470000D928A95E1F7812F82958F70E1E0F0E08F
:10048000EC0FFD1FE80FF11D80810E94F5011F7028
:10049000E1E0F0E0EC0FFD1FE10FF11D80816096BF
:1004A000CDBFDEBFDF91CF911F910C94F501CF93AB
:1004B000C82F892F0E9429028C2FCF910C942902DA
:1004C000CF93DF93E091C8218D3019F08A3009F085
:1004D00060C1F0E0E857FE4D10828AE00E94F5010D
:1004E0006BE270E288E891E20E949607892B99F40A
:1004F00080E390E20E9401028FE490E20E940102F8
:1005000086E690E20E9401028FE790E20E940102DB
:1005100083ED90E236C166E970E288E891E20E94DC
:100520009607892B49F06CE970E288E891E20E9415
:100530009607892B09F04BC08FEF9FEF8093380807
:100540009093390880933A0890933B0880933C0835
:1005500090933D0880933E0890933F0880937808DD
:100560009093790880937A0890937B088093380958
:100570009093390980933A0990933B0980933C0901
:1005800090933D0980933A0B90933B0B80933C0BE7
:1005900090933D0B80933E0B90933F0B80933E0ACC
:1005A00090933F0A8093780A9093790A80937A0A0D
:1005B00090937B0A8093380A9093390A80933A0A81
:1005C00090933B0A80933C0A90933D0AD8C06FE910
:1005D00070E288E891E20E949607892B09F049C0F1
:1005E000109238081092390810923A0810923B087D
:1005F00010923C0810923D0810923E0810923F085D
:10060000109278081092790810927A0810927B085C
:10061000109238091092390910923A0910923B0948
:1006200010923C0910923D0910923A0B10923B0B2C
:1006300010923C0B10923D0B10923E0B10923F0B10
:1006400010923E0A10923F0A1092780A1092790A8C
:1006500010927A0A10927B0A1092380A1092390A84
:1006600010923A0A10923B0A10923C0A10923D0AEC
:1006700086C044E050E063EA70E288E891E20E94BC
:100680009F07892B79F58091C8218430E9F0863065
:1006900030F180918C21803211F58DE891E20E9439
:1006A0007807811522E0920718F086EB90E269C086
:1006B0008093C9219093CA216091C9217091CA2168
:1006C00084E290E00E94E20788EA90E20E94010240
:1006D0008091C9219091CA210E94570250C08DEC8F
:1006E00090E24FC062E071E288E891E20E949607D2
:1006F000892B09F048C086E091E20E94010283E163
:1007000091E20E94010283E391E20E940102809142
:100710003E2690913F260E94570281E391E20E947B
:10072000010287E491E20E9401028091D32390911B
:10073000D4230E94570281E391E20E94010288E5DE
:1007400091E20E9401028091D9230E94290281E353
:1007500091E20E9401028CE691E20E940102C1E056
:10076000D0E0FE01E752FC4D80810E94290283E81F
:1007700091E20E9401022196C730D10591F781E3F1
:1007800091E20E9401028EE30E94F5011092C821BD
:100790001CC0883061F4EE23C1F0E150E093C82121
:1007A0000E94F50180E20E94F50188E00AC0E03471
:1007B00060F491E09E0F9093C821F0E0E857FE4D61
:1007C0008083DF91CF910C94F501DF91CF91089553
:1007D0001F920F920FB60F9211240BB60F922F9308
:1007E0003F934F935F936F937F938F939F93AF93B9
:1007F000BF93EF93FF938091B00A0E946002FF9134
:10080000EF91BF91AF919F918F917F916F915F9188
:100810004F913F912F910F900BBE0F900FBE0F90F5
:100820001F9018951F920F920FB60F9211240BB6BE
:100830000F922F933F934F935F936F937F938F9379
:100840009F93AF93BF93EF93FF93CF93DF931F9249
:10085000CDB7DEB7BE016F5F7F4F8BEC93E20E9496
:10086000600689818093B00A8BEC93E20E94CB06EC
:10087000882329F08091B30A8C7F8093B30A0F906C
:10088000DF91CF91FF91EF91BF91AF919F918F91A8
:100890007F916F915F914F913F912F910F900BBE80
:1008A0000F900FBE0F901F901895CF93DF9380E4A9
:1008B00080936206C0EBD9E08D818F738D838BE0CE
:1008C0008D8340E950ED63E070E080EB99E00E9499
:1008D000D2058C8180618C838B818F7C80628B833D
:1008E000E0E4F9E085E080838181887F81838181F4
:1008F0008061818310923E2610923F261092D3236E
:100900001092D4231092D5231092D6231092D7237D
:100910001092D823DF91CF910895CF93DF93FC01FC
:10092000E60FF71F8081889FC0011124A0E0B8E086
:10093000D8968D939C93D9978181889FC00111246B
:10094000DA968D939C93DB978281889FC001112456
:10095000DC968D939C93DD978381889FC001112441
:1009600080933E0890933F088481889FC0011124A2
:10097000A0E4B8E0D8968D939C93D9978581889F01
:10098000C0011124DA968D939C93DB978681889F12
:10099000C0011124A0E0B9E0D8968D939C93D9971B
:1009A0008781889FC0011124DA968D939C93DB97F1
:1009B0008085889FC0011124DC968D939C93DD97E0
:1009C0008185889FC0011124A0E0BBE0DA968D9359
:1009D0009C93DB978285889FC0011124DC968D93C0
:1009E0009C93DD978385889FC001112480933E0BE3
:1009F00090933F0B8485889FC0011124A0E0BAE04A
:100A000080933E0A90933F0A8585889FC0011124F8
:100A1000C0E4DAE088AF99AF8685889FC0011124D1
:100A20008AAF9BAF8785889FC0011124D8968D938C
:100A30009C93D9978089889FC0011124DA968D9361
:100A40009C93DB978189889FC0011124DC968D934C
:100A50009C93DD97DF91CF910895809160099091EB
:100A60006109880F991F81159A4F30F060E070E09E
:100A700080E090E20E948D042091D3233091D42312
:100A80006091C9217091CA21CB014396281739077B
:100A900010F18091600990916109880F991F863942
:100AA0009105C8F010926009109261091092D32349
:100AB0001092D4238091D923811104C08BED93E24D
:100AC0000E948D0480913E2690913F26019680934E
:100AD0003E2690933F260895E0E0F0E2DC012D9160
:100AE000CD012193B0E2E231FB07C1F742E150E0D2
:100AF00060E070E080E090E20C94B507E091D323D1
:100B0000F091D423E752FC4D80838091D3239091C0
:100B1000D42301968093D3239093D4238091D3231D
:100B20009091D4238935924020F01092D3231092D3
:100B3000D42308951F920F920FB60F9211240F9095
:100B40000FBE0F901F9018951F920F920FB60F9225
:100B500011240BB60F922F933F934F935F936F9394
:100B60007F938F939F93AF93BF93EF93FF93809166
:100B7000B0090E947E051092600910926109FF91F0
:100B8000EF91BF91AF919F918F917F916F915F9105
:100B90004F913F912F910F900BBE0F900FBE0F9072
:100BA0001F901895CF92DF92EF92FF92CF93DF9331
:100BB000EC019A01AB0160E070E482E49FE00E94E6
:100BC0005607BA01A901405851096109710999EF05
:100BD0006A017B01CC2480EFD822EE24FF24CD28AB
:100BE000CE28CF2831F076956795579547959F5F2A
:100BF000EFCF4E838F81252F2F70807F822B8F83A5
:100C00008F8140E19402900111248F70282B2F8353
:100C1000DF91CF91FF90EF90DF90CF900895CF9329
:100C2000DF93EC018D818F738D8383E08D8340E0B2
:100C30005BE460E070E0CE010E94D2058C818061AF
:100C40008C838C8188608C83DF91CF910895809113
:100C500050008260809350008091510081FFFCCF52
:100C600088ED84BF81E080934000809150008E7FAA
:100C70008093500080E090E008958BEC80935200C8
:100C8000809150008860809350008091510083FFD4
:100C9000FCCF88ED84BF83E08093400080915000BA
:100CA0008E7F8093500080E090E00895FC01608387
:100CB00071831282138214821582468357830895AA
:100CC000FC01848195812281338128173907A9F09D
:100CD00020813181D901A80FB91F8C91DB018C9340
:100CE000848195810196848395832681378182173B
:100CF000930728F01482158202C081E0089580E0F5
:100D00000895FC01228133812F5F3F4F86819781B7
:100D10002817390711F420E030E081E04481558143
:100D20002417350709F080E008950F931F93CF93A0
:100D3000DF931F92CDB7DEB78C0169830E948106D5
:100D40006981811121C0D801ED91FC911197129612
:100D50002D913C911397E20FF31F608312962D9112
:100D60003C9113972F5F3F4F12962D933C9313970F
:100D700016964D915C9117972417350730F012960F
:100D80001D921C92139701C081E00F90DF91CF91CB
:100D90001F910F910895FC0181E0428153812481CC
:100DA00035814217530709F080E00895FC01228144
:100DB000338184819581281B390B37FF04C0C90119
:100DC000809590950895868197810197821B930B5A
:100DD0000895FC01128213821482158208950E94E4
:100DE00027060E9415010E94C5010E94550482E257
:100DF00090E20E9401028091A20081608093A20093
:100E00008091A20082608093A20078948FEF90E09E
:100E1000809338089093390810923A0810923B0852
:100E200010923C0810923D0880933E0890933F0832
:100E3000109278081092790810927A0810927B0824
:100E4000809338099093390910923A0910923B091E
:100E500010923C0910923D0980933A0B90933B0B02
:100E600010923C0B10923D0B10923E0B10923F0BD8
:100E700080933E0A90933F0A1092780A1092790A62
:100E800010927A0A10927B0A8093380A9093390A5A
:100E900010923A0A10923B0A10923C0A10923D0AB4
:100EA00060E070E0CB010E942D05FACFA1E21A2E7E
:100EB000AA1BBB1BFD010DC0AA1FBB1FEE1FFF1FFE
:100EC000A217B307E407F50720F0A21BB30BE40B4E
:100ED000F50B661F771F881F991F1A9469F7609595
:100EE0007095809590959B01AC01BD01CF0108954F
:100EF000FC0188279927E89421912032E9F32930D1
:100F000010F02E30C8F32B3241F02D3239F46894B2
:100F100004C00E94AD07820F911D219120532A30F9
:100F2000C0F31EF4909581959F4F0895FB01DC015D
:100F30008D91019080190110D9F3990B0895FB014F
:100F4000DC014150504030F08D910190801919F42E
:100F50000020B9F7881B990B08957AE0979F902D90
:100F6000879F802D910D11240895DC01CB0103C0D2
:100F70002D910E94C00741505040D0F70895262F70
:100F8000E0ECF1E0378537FDFDCF3485377F3487DE
:100F9000378531FF09C036E3328738ED34BF31E0A1
:100FA0003387378537FDFDCF33E3328780839183E5
:100FB0001282248325E3228728ED31E024BF338782
:100FC000019608950E94BF07272F0C94C007F8943C
:020FD000FFCF51
:100FD2000094FF0094FF0094FF0094FF0094FF0030
:100FE20094FF303132333435363738394142434455
:100FF2004546524553544152540A0068656C70008C
:1010020068656C700909446973706C617920746851
:1010120069732068656C7020746578742E0A006F9D
:101022006E09095475726E20616C6C206C65647374
:10103200206F6E2E0A006F666609095475726E2063
:10104200616C6C206C656473206F66662E0A0064A6
:101052006D78090953686F7720646D782073746125
:101062007475732E0A007365747570006F6E006F6D
:101072006666006164647200444D58206164647263
:101082006573733A20006572726F723A206164640C
:1010920072657373203E3D203531320A00757361EB
:1010A20067652061646472203C7878783E09095350
:1010B200686F772F73657420646D78207374617222
:1010C20074206164647265737320746F2078787819
:1010D2000A00646D7800444D58207374617475730E
:1010E2003A0A002D2D2D2D2D2D2D2D2D2D2D2D2D71
:1010F2002D2D2D2D2D2D2D2D2D2D2D2D2D2D2D2D1E
:101102002D0A005265636569766564206672616DB9
:1011120065733A203078004279746520636F756E8A
:101122007465723A203078004C61737420636F6D7D
:101132006D616E6420627974653A2000466972734B
:101142007420627974657320696E206672616D65C0
:081152003A0A00202D200000E4
:00000001FF
