:100000000C94F4000C9413010C9413010C94130140
:100010000C9413010C9413010C9413010C94130110
:100020000C9413010C9413010C9413010C94130100
:100030000C9413010C9413010C9413010C941301F0
:100040000C9413010C9413010C9413010C941301E0
:100050000C9413010C9413010C9413010C941301D0
:100060000C9413010C9413010C9413010C941301C0
:100070000C9413010C9413010C9413010C941301B0
:100080000C9413010C9413010C9413010C941301A0
:100090000C9413010C9413010C9413010C94130190
:1000A0000C9413010C9413010C9413010C94130180
:1000B0000C9413010C9413010C9413010C94130170
:1000C0000C9413010C9413010C9413010C94130160
:1000D0000C9413010C9413010C9413010C94130150
:1000E0000C9413010C9413010C9413010C94130140
:1000F0000C9413010C94EC030C9416040C9413014F
:100100000C9413010C9413010C9413010C9413011F
:100110000C9413010C9413010C9413010C9413010F
:100120000C9413010C9413010C9413010C941301FF
:100130000C9413010C9413010C9413010C941301EF
:100140000C9413010C9413010C9413010C94A50549
:100150000C9413010C9413010C9413010C941301CF
:100160000C9413010C9413010C9413010C94AF051F
:100170000C9413010C9413010C9413010C941301AF
:100180000C9413010C9413010C9413010C9413019F
:100190000C9413010C9413010C9413010C9413018F
:1001A0000C9413010C9413010C9413010C9413017F
:1001B0000C9413010C9413010C9413010C9413016F
:1001C0000C9413010C9413010C9413010C9413015F
:1001D0000C9413010C9413010C9413010C9413014F
:1001E0000C9413010C94130111241FBECFEFDFE216
:1001F000DEBFCDBF11E2A0E0B0E2E4EEFFE000E040
:100200000BBF02C007900D92A838B107D9F716E2CC
:10021000A8E8B1E201C01D92A034B107E1F70E9445
:10022000F8060C94F0070C940000E0E0F8E022E0FF
:1002300020838181887F836081838FEF9FEF86A3F6
:1002400097A3A0E4B6E05FE011965C93119710AE1F
:1002500011AE12AE13AE14AE15AE10923E0810924F
:100260003F083181306131833181306231833181A6
:1002700030643183318130683183E0E4F8E02083F9
:100280003181387F3360318386A397A340E3119691
:100290004C9310AE11AE12AE13AE3181306131838A
:1002A000318130623183E0E0F9E020833181387FB1
:1002B0003360318386A397A337E0A0E6B6E01196BA
:1002C0003C9310AE11AE12AE13AE14AE15AE31812A
:1002D00030613183318130623183318130643183E7
:1002E000E0E0FAE020833181387F3360318386A3F8
:1002F00097A3A0E8B6E011965C93119710AE11AEEB
:1003000012AE13AE14AE15AE10923E0A10923F0A12
:1003100031813061318331813062318331813064A8
:100320003183318130683183E0E4FAE02083318128
:10033000387F3360318386A397A311964C9310AE18
:1003400011AE12AE13AE3181306131833181306232
:100350003183E0E0FBE020832181287F236021833B
:1003600086A397A38EE0A0EAB6E011968C9312AE16
:1003700013AE14AE15AE10923E0B10923F0B81815E
:1003800080628183818180648183818180688183AF
:100390000895CF93DF9340E052E06BEC71E28BEC79
:1003A00093E20E945F06E0E8F6E080E8818380E463
:1003B0008283C0EBDAE08D818F738D8383E08D8340
:1003C00040E855E260E070E080EB9AE00E94DD05D5
:1003D0008C8180618C838C8188608C838B818F7C05
:1003E00080628B838B818C7F8B83DF91CF9108958B
:1003F0000895682F8BEC93E20E949D06E0EBFAE0F3
:1004000083818C7F816083830895CF93DF93EC0198
:100410008991882319F00E94F901FACFDF91CF91D9
:1004200008950F931F93CF93DF938B01EC01080F77
:10043000191FC017D10761F069918BEC93E20E94FC
:100440009D068091B30A8C7F81608093B30AF1CFBF
:10045000DF91CF911F910F9108951F93CF93DF9359
:10046000CDB7DEB76097CDBFDEBF182F80E1E2E1E8
:10047000F0E2DE01119601900D928A95E1F7812F4D
:1004800082958F70E1E0F0E0EC0FFD1FE80FF11DA9
:1004900080810E94F9011F70E1E0F0E0EC0FFD1F88
:1004A000E10FF11D80816096CDBFDEBFDF91CF915E
:1004B0001F910C94F901CF93C82F892F0E942D0210
:1004C0008C2FCF910C942D02CF93DF93E091C82114
:1004D0008D3019F08A3009F060C1F0E0E857FE4D28
:1004E00010828AE00E94F9016BE270E288E891E2F2
:1004F0000E949F07892B99F480E390E20E940502F5
:100500008FE490E20E94050286E690E20E940502D6
:100510008FE790E20E94050283ED90E236C166E922
:1005200070E288E891E20E949F07892B49F06CE90C
:1005300070E288E891E20E949F07892B09F04BC086
:100540008FEF9FEF809338089093390880933A0893
:1005500090933B0880933C0890933D0880933E081D
:1005600090933F08809378089093790880937A0855
:1005700090937B08809338099093390980933A09C6
:1005800090933B0980933C0990933D0980933A0BEB
:1005900090933B0B80933C0B90933D0B80933E0BD1
:1005A00090933F0B80933E0A90933F0A8093780A82
:1005B0009093790A80937A0A90937B0A8093380A01
:1005C0009093390A80933A0A90933B0A80933C0AAD
:1005D00090933D0AD8C06FE970E288E891E20E94EA
:1005E0009F07892B09F049C01092380810923908EA
:1005F00010923A0810923B0810923C0810923D0865
:1006000010923E0810923F081092780810927908D4
:1006100010927A0810927B081092380910923909CA
:1006200010923A0910923B0910923C0910923D0930
:1006300010923A0B10923B0B10923C0B10923D0B18
:1006400010923E0B10923F0B10923E0A10923F0AFE
:100650001092780A1092790A10927A0A10927B0A04
:100660001092380A1092390A10923A0A10923B0AF4
:1006700010923C0A10923D0A86C044E050E063EAC2
:1006800070E288E891E20E94A807892B79F58091B1
:10069000C8218430E9F0863030F180918C2180329D
:1006A00011F58DE891E20E948107811522E0920701
:1006B00018F086EB90E269C08093C9219093CA211B
:1006C0006091C9217091CA2184E290E00E94EB07F9
:1006D00088EA90E20E9405028091C9219091CA2186
:1006E0000E945B0250C08DEC90E24FC062E071E26C
:1006F00088E891E20E949F07892B09F048C086E0B4
:1007000091E20E94050283E191E20E94050283E3E7
:1007100091E20E94050280913E2690913F260E9420
:100720005B0281E391E20E94050287E491E20E946C
:1007300005028091D3239091D4230E945B0281E330
:1007400091E20E94050288E591E20E9405028091F3
:10075000D9230E942D0281E391E20E9405028CE6DA
:1007600091E20E940502C1E0D0E0FE01E752FC4D9B
:1007700080810E942D0283E891E20E940502219669
:10078000C730D10591F781E391E20E9405028EE323
:100790000E94F9011092C8211CC0883061F4EE2338
:1007A000C1F0E150E093C8210E94F90180E20E946B
:1007B000F90188E00AC0E03460F491E09E0F909364
:1007C000C821F0E0E857FE4D8083DF91CF910C9473
:1007D000F901DF91CF9108951F920F920FB60F92FA
:1007E00011240BB60F922F933F934F935F936F9308
:1007F0007F938F939F93AF93BF93EF93FF938091DA
:10080000B00A0E946402FF91EF91BF91AF919F9156
:100810008F917F916F915F914F913F912F910F90A9
:100820000BBE0F900FBE0F901F9018951F920F9246
:100830000FB60F9211240BB60F922F933F934F9345
:100840005F936F937F938F939F93AF93BF93EF9338
:10085000FF93CF93DF931F92CDB7DEB7BE016F5FDB
:100860007F4F8BEC93E20E94690689818093B00AE6
:100870008BEC93E20E94D406882329F08091B30A7E
:100880008C7F8093B30A0F90DF91CF91FF91EF910E
:10089000BF91AF919F918F917F916F915F914F9198
:1008A0003F912F910F900BBE0F900FBE0F901F9096
:1008B0001895CF93DF9386EC90E08093C9219093B5
:1008C000CA2180E4E0E6F6E08283C0EBD9E08D81C6
:1008D0008F738D838BE08D8340E950ED63E070E092
:1008E00080EB99E00E94DD058C8180618C838B8197
:1008F0008F7C80628B83E0E4F9E085E080838181F6
:10090000887F818381818061818310923E2610924D
:100910003F261092D3231092D4231092D523109205
:10092000D6231092D7231092D823DF91CF91089528
:10093000CF93DF93E091C921F091CA21E80FF91F0D
:100940008081889FC0011124A0E0B8E0D8968D93E3
:100950009C93D9978181889FC0011124DA968D9349
:100960009C93DB978281889FC0011124DC968D9334
:100970009C93DD978381889FC001112480933E085A
:1009800090933F088481889FC0011124A0E4B8E0BF
:10099000D8968D939C93D9978581889FC001112407
:1009A000DA968D939C93DB978681889FC0011124F2
:1009B000A0E0B9E0D8968D939C93D9978781889FC2
:1009C000C0011124DA968D939C93DB978085889FD4
:1009D000C0011124DC968D939C93DD978185889FBF
:1009E000C0011124A0E0BBE0DA968D939C93DB97C5
:1009F0008285889FC0011124DC968D939C93DD979E
:100A00008385889FC001112480933E0B90933F0BF8
:100A10008485889FC0011124A0E0BAE080933E0A3B
:100A200090933F0A8585889FC0011124C0E4DAE0D5
:100A300088AF99AF8685889FC00111248AAF9BAF8C
:100A40008785889FC0011124D8968D939C93D99750
:100A50008089889FC0011124DA968D939C93DB973F
:100A60008189889FC0011124DC968D939C93DD972A
:100A7000DF91CF9108958091600990916109880F6D
:100A8000991F81159A4F20F080E090E20E9498040F
:100A90002091D3233091D4238091C9219091CA21F0
:100AA00043962817390710F18091600990916109E8
:100AB000880F991F86399105C8F01092600910922D
:100AC00061091092D3231092D4238091D9238111EC
:100AD00004C08BED93E20E94980480913E26909191
:100AE0003F26019680933E2690933F260895E0E0AE
:100AF000F0E2DC012D91CD012193B0E2E231FB0760
:100B0000C1F742E150E060E070E080E090E20C94D8
:100B1000BE07E091D323F091D423E752FC4D8083AC
:100B20008091D3239091D42301968093D3239093E3
:100B3000D4238091D3239091D4238935924020F0FF
:100B40001092D3231092D42308951F920F920FB6C0
:100B50000F9211240F900FBE0F901F9018951F92A7
:100B60000F920FB60F9211240BB60F922F933F9353
:100B70004F935F936F937F938F939F93AF93BF93A5
:100B8000EF93FF938091B0090E948905E0E4F9E0BA
:100B900010A211A2FF91EF91BF91AF919F918F9100
:100BA0007F916F915F914F913F912F910F900BBE6D
:100BB0000F900FBE0F901F901895CF92DF92EF927B
:100BC000FF92CF93DF93EC019A01AB0160E070E4F8
:100BD00082E49FE00E945F072058310941095109D2
:100BE00089EF69017A01CC2490EFD922EE24FF2409
:100BF000CD28CE28CF2831F05695479537952795A3
:100C00008F5FEFCF2E836F81932F9F70607F962B26
:100C10009F832F8130E18302C00111242F70282B84
:100C20002F83DF91CF91FF90EF90DF90CF900895C9
:100C3000CF93DF93EC018D818F738D8383E08D8360
:100C400040E05BE460E070E0CE010E94DD058C8155
:100C500080618C838C8188608C83DF91CF91089533
:100C6000809150008260809350008091510081FFFC
:100C7000FCCF88ED84BF81E08093400080915000DC
:100C80008E7F8093500080E090E008958BEC8093FD
:100C900052008091500088608093500080915100F4
:100CA00083FFFCCF88ED84BF83E080934000809178
:100CB00050008E7F8093500080E090E00895FC010A
:100CC0006083718312821382148215824683578354
:100CD0000895FC0184819581228133812817390789
:100CE000A1F0A081B181A80FB91F8C91DB018C9379
:100CF000848195810196848395832681378182172B
:100D0000930728F01482158202C081E0089580E0E4
:100D10000895FC01228133812F5F3F4F86819781A7
:100D20002817390711F420E030E081E04481558133
:100D30002417350709F080E008950F931F93CF9390
:100D4000DF931F92CDB7DEB78C0169830E948906BD
:100D50006981811120C0D801ED91FC911197129603
:100D60008D919C911397E80FF91F608312968D91D6
:100D70009C911397019612968D939C9313971696B8
:100D80002D913C9117978217930738F012961D9278
:100D90001C92139702C081E001C080E00F90DF91A8
:100DA000CF911F910F910895FC0181E04281538101
:100DB000248135814217530709F080E00895FC0132
:100DC0002281338184819581281B390B37FF04C030
:100DD000C901809590950895868197810197821B1E
:100DE000930B0895FC0112821382148215820895D8
:100DF0000E9430060E9415010E94C9010E945904F8
:100E000082E290E20E9405028091A20081608093BC
:100E1000A2008091A20082608093A20078948FEF5C
:100E200090E0809338089093390810923A08109215
:100E30003B0810923C0810923D0880933E08909326
:100E40003F08109278081092790810927A08109250
:100E50007B08809338099093390910923A091092CF
:100E60003B0910923C0910923D0980933A0B9093F4
:100E70003B0B10923C0B10923D0B10923E0B1092CC
:100E80003F0B80933E0A90933F0A1092780A10928B
:100E9000790A10927A0A10927B0A8093380A90930A
:100EA000390A10923A0A10923B0A10923C0A1092A8
:100EB0003D0A60E070E0CB010E943B05FACFA1E261
:100EC0001A2EAA1BBB1BFD010DC0AA1FBB1FEE1FC4
:100ED000FF1FA217B307E407F50720F0A21BB30B0F
:100EE000E40BF50B661F771F881F991F1A9469F78B
:100EF00060957095809590959B01AC01BD01CF01E7
:100F00000895FC0188279927E89421912032E9F37C
:100F1000293010F02E30C8F32B3241F02D3239F445
:100F2000689404C00E94B607820F911D219120533E
:100F30002A30C0F31EF4909581959F4F0895FB01D0
:100F4000DC018D91019080190110D9F3990B08955E
:100F5000FB01DC014150504030F08D91019080192F
:100F600019F40020B9F7881B990B08957AE0979F30
:100F7000902D879F802D910D11240895DC01CB01C8
:100F800003C02D910E94C90741505040D0F70895E9
:100F9000262FE0ECF1E0378537FDFDCF3485377F34
:100FA0003487378531FF09C036E3328738ED34BFE7
:100FB00031E03387378537FDFDCF33E332878083D8
:100FC00091831282248325E3228728ED31E024BF18
:100FD0003387019608950E94C807272F0C94C907EC
:040FE000F894FFCFB3
:100FE400FF00D9FF00D9FF00D9FF00D9FF00D9FFC6
:100FF40000D93031323334353637383941424344FD
:101004004546524553544152540A0068656C700079
:1010140068656C700909446973706C61792074683F
:1010240069732068656C7020746578742E0A006F8B
:101034006E09095475726E20616C6C206C65647362
:10104400206F6E2E0A006F666609095475726E2051
:10105400616C6C206C656473206F66662E0A006494
:101064006D78090953686F7720646D782073746113
:101074007475732E0A007365747570006F6E006F5B
:101084006666006164647200444D58206164647251
:101094006573733A20006572726F723A20616464FA
:1010A40072657373203E3D203531320A00757361D9
:1010B40067652061646472203C7878783E0909533E
:1010C400686F772F73657420646D78207374617210
:1010D40074206164647265737320746F2078787807
:1010E4000A00646D7800444D5820737461747573FC
:1010F4003A0A002D2D2D2D2D2D2D2D2D2D2D2D2D5F
:101104002D2D2D2D2D2D2D2D2D2D2D2D2D2D2D2D0B
:101114002D0A005265636569766564206672616DA7
:1011240065733A203078004279746520636F756E78
:101134007465723A203078004C61737420636F6D6B
:101144006D616E6420627974653A20004669727339
:101154007420627974657320696E206672616D65AE
:081164003A0A00202D200000D2
:00000001FF
