:100000000C94F4000C9420060C9413010C9413012E
:100010000C9413010C9413010C9413010C94130110
:100020000C9413010C9413010C9413010C94130100
:100030000C9413010C9413010C9413010C941301F0
:100040000C9413010C9413010C9413010C941301E0
:100050000C9413010C9413010C9413010C941301D0
:100060000C9413010C9413010C9413010C941301C0
:100070000C9413010C9413010C9413010C941301B0
:100080000C9413010C9413010C9413010C941301A0
:100090000C9413010C9413010C9413010C94130190
:1000A0000C9413010C9413010C9413010C94130180
:1000B0000C9413010C9413010C9413010C94130170
:1000C0000C9413010C9413010C9413010C94130160
:1000D0000C9413010C9413010C9413010C94130150
:1000E0000C9413010C9413010C9413010C94130140
:1000F0000C9413010C9413010C9413010C94130130
:100100000C9413010C9413010C9413010C9413011F
:100110000C9413010C9413010C9413010C9413010F
:100120000C9413010C9413010C9413010C941301FF
:100130000C9413010C9413010C9413010C941301EF
:100140000C9413010C9413010C9413010C94C0042F
:100150000C9413010C9413010C9413010C941301CF
:100160000C9413010C9413010C9413010C94FE04D1
:100170000C9413010C9413010C9413010C941301AF
:100180000C9413010C9413010C9413010C9413019F
:100190000C9413010C9413010C9413010C9413018F
:1001A0000C9413010C9413010C9413010C9413017F
:1001B0000C9413010C9413010C9413010C9413016F
:1001C0000C9413010C9413010C9413010C9413015F
:1001D0000C9413010C9413010C9413010C9413014F
:1001E0000C9413010C94130111241FBECFEFCDBF4B
:1001F000DFE2DEBF10E2A0E0B0E2E2ECFEE000E011
:100200000BBF02C007900D92A632B107D9F722E2C8
:10021000A6E2B0E201C01D92A934B207E1F70E9444
:10022000AD060C945F070C940000E0E0F8E022E0DB
:1002300020838181887F836081838FEF9FEF86A3F6
:1002400097A3A0E4B6E05FE011965C93119731812B
:100250003061318331813062318331813064318367
:10026000318130683183E0E4F8E020833181387FE8
:100270003360318386A397A340E311964C93318179
:1002800030613183318130623183E0E0F9E02083F5
:100290003181387F3360318386A397A337E0309371
:1002A0006106318130613183318130623183318146
:1002B00030643183E0E0FAE020833181387F3360BD
:1002C000318386A397A3A0E8B6E011965C931197BB
:1002D00031813061318331813062318331813064E9
:1002E0003183318130683183E0E4FAE02083318169
:1002F000387F3360318386A397A311964C9310AE59
:1003000011AE12AE13AE3181306131833181306272
:100310003183E0E0FBE020832181287F236021837B
:1003200086A397A38EE08093A1068181806281835A
:100330008181806481838181806881830895E82F31
:10034000F0E0EE0FFF1FE050F04E0190F081E02D45
:1003500070E0608371830895E82FEE0FE80FAE2FF1
:10036000B0E0AA0FBB1FA050B04E0D90BC91A02DC5
:1003700070E06D937C93A1E0AE0FB0E0AA0FBB1FBD
:10038000A050B04E0D90BC91A02D50E04D935C93C9
:10039000EE5FF0E0EE0FFF1FE050F04E0190F081B5
:1003A000E02D30E0208331830895CF93DF93FC016B
:1003B000A0E0B0E29C012E5E3F4F8191CD91DD9196
:1003C00090E088839983E217F307B9F7DF91CF9123
:1003D0000895CF93DF93FC0180819081899FC001B4
:1003E0001124A0E0B8E0D8968D939C93D997818191
:1003F0009181899FC0011124DA968D939C93DB979C
:1004000082819281899FC0011124DC968D939C93F7
:10041000DD9783819381899FC0011124DE968D939E
:100420009C93DF9784819481899FC0011124A0E46B
:10043000B8E0D8968D939C93D99785819581899FB3
:10044000C0011124DA968D939C93DB978681968167
:10045000899FC0011124A0E0B9E0D8968D939C93A8
:10046000D99787819781899FC0011124DA968D934E
:100470009C93DB9780859085899FC0011124DC9631
:100480008D939C93DD9781859185899FC00111246F
:10049000A0E0BBE0DA968D939C93DB9782859285F2
:1004A000899FC0011124DC968D939C93DD978385F1
:1004B0009385899FC0011124DE968D939C93DF97CD
:1004C00084859485899FC0011124A0E0BAE0DE965E
:1004D0008D939C93DF9785859585899FC001112415
:1004E000C0E4DAE088AF99AF86859685899FC00120
:1004F00011248AAF9BAF87859785899FC0011124FE
:10050000D8968D939C93D99780899089899FC001B3
:100510001124DA968D939C93DB9781899189899F29
:10052000C0011124DC968D939C93DD97DF91CF91D0
:100530000895669FB0011124449FA0011124229FB9
:100540009001112490E0981301C008956093380839
:100550007093390840933A0850933B0820933C0825
:1005600030933D0860933E0870933F0840937808AD
:100570005093790820937A0830937B086093380968
:100580007093390940933A0950933B0920933C09F1
:1005900030933D0960933A0B70933B0B40933C0BB7
:1005A00050933D0B20933E0B30933F0B60933E0ADC
:1005B00070933F0A4093780A5093790A20937A0AFD
:1005C00030937B0A6093380A7093390A40933A0A51
:1005D00050933B0A20933C0A30933D0AAFEFE9E683
:1005E000F8E1A150E040F040E1F700C000001092B7
:1005F00038081092390810923A0810923B0810926D
:100600003C0810923D0810923E0810923F0810924C
:1006100078081092790810927A0810927B0810924C
:1006200038091092390910923A0910923B09109238
:100630003C0910923D0910923A0B10923B0B10921C
:100640003C0B10923D0B10923E0B10923F0B109200
:100650003E0A10923F0A1092780A1092790A10927C
:100660007A0A10927B0A1092380A1092390A109274
:100670003A0A10923B0A10923C0A10923D0AAFEFE0
:10068000E9E6F8E1A150E040F040E1F700C00000E9
:100690009F5F59CFCF93DF93E0E6F6E080E482835B
:1006A00086898861868BC0EBD9E08D818F738D83BD
:1006B0008BE08D8340E950ED63E070E080EB99E0E2
:1006C0000E946A058C8180618C838B818F7C806223
:1006D0008B83E0E4F9E085E080838181887F8183FA
:1006E00084EF91E086A397A386818C7F81608683C7
:1006F000DF91CF91089580912E2090912F20892B0A
:1007000021F40E944D060E94E9018091342281303B
:10071000E1F0833089F1811154C08091352282301B
:1007200009F04FC00E946E06209130203091312098
:100730008217930708F045C083E0809335220E941A
:1007400053068E5C9F4D0C94E90180912C20811101
:1007500038C080912B20109234220E94760620E02F
:1007600040E06FEF83E00E9499020E94500620E073
:100770004FEF60E00C949902809126209091272001
:10078000A0912820B0912920892B8A2B8B2B11F442
:100790001092342280912A20853198F010923422D0
:1007A000F89469EF71E082E390E20E948C067894FD
:1007B0002FEF40E060E083E00E9499020E944D0626
:1007C000C2CF089580913422823041F0833089F085
:1007D00082E080933422109236220895809136224E
:1007E00091E0980F909336228431B9F783E080939B
:1007F000342210922A2080E69AEEA0E0B0E08093A6
:10080000262090932720A0932820B0932920089594
:1008100090910506986090930506209130203091C4
:1008200031202115324010F01092352290912A206B
:100830002091302030913120A9014F5F5F4F4093CC
:100840003020509331202E5C3F4DF90191110EC0A4
:1008500080838091302090913120893F914029F40C
:1008600080912A208F5F80932A2008959081981785
:1008700081F310922A20EDCF80913422813041F013
:1008800081E08093342284E180932C2080932D207A
:10089000089590910506946090930506209130206C
:1008A000309131202230324018F0109235220895D4
:1008B0002091302030913120A9014F5F5F4F40934C
:1008C000302050933120232B19F590912C20943116
:1008D00011F480932B2090912D20911551F08111CE
:1008E00006C080912D20815080932D20089584E1B1
:1008F000FBCF90912C20911559F0811549F09091E2
:100900002B20891306C080912C20815080932C20AD
:10091000089584E1FBCF909135229230A9F4209183
:10092000302030913120A9014F5F5F4F409330203C
:10093000509331202E5C3F4DF901808380E890E098
:1009400080932E2090932F200895109230201092A3
:10095000312092E090933522813059F0823059F065
:1009600081110BC080913422833049F010923422DF
:1009700008950C943C040C94E203109235220895DF
:100980001F921FB61F9211248F939F93AF93BF9313
:1009900080912E2090912F20892B49F080912E203C
:1009A00090912F20019780932E2090932F2080915B
:1009B000262090912720A0912820B09129200097EF
:1009C000A105B10599F08091262090912720A09152
:1009D0002820B09129200197A109B10980932620F0
:1009E00090932720A0932820B0932920BF91AF9106
:1009F0009F918F911F901FBE1F9018951F920F926D
:100A00000FB60F9211240BB60F922F933F934F9373
:100A10005F936F937F938F939F93AF93BF93EF9366
:100A2000FF939091B1098091B00994FF27C09091F4
:100A30000606926090930606909106069460909345
:100A4000060690910606986090930606811124C0D0
:100A500081E080933522FF91EF91BF91AF919F91FB
:100A60008F917F916F915F914F913F912F910F9057
:100A70000BBE0F900FBE0F901F90189590913522CE
:100A8000913019F40E94A504E6CF209130203091D6
:100A900031202330324018F010923522DCCF909173
:100AA00035229115C1F2909105069260909305064A
:100AB00090913422923079F228F4911108C00E946A
:100AC0008B04C9CF933041F70E940804C4CF0E9421
:100AD0004904C1CF0F931F93CF93DF93EC019A0189
:100AE000AB0160E070E482E49FE00E94E106BA019D
:100AF000A901405851096109710989EF8A019B01D7
:100B00000027107F22273327012B022B032B81F490
:100B10004E839F81907F952B9F839F819F708295AD
:100B2000807F892B8F83DF91CF911F910F91089543
:100B300076956795579547958F5FE0CFCF93DF9375
:100B4000EC018D818F738D8383E08D8340E05BE4C6
:100B500060E070E0CE010E946A058C8180618C8328
:100B60008C8188608C83DF91CF910895AB0120E068
:100B700030E062E44217530711F480E00895909149
:100B800051002F5F3F4F9823911104C0962F9A95E3
:100B9000F1F7F0CF81E00895809150008660809356
:100BA000500060E177E282E00E94B605811102C048
:100BB00080E0089560E177E284E00E94B605811547
:100BC000B9F390916000916090936000089588ED72
:100BD00084BF81E08093400008958BEC80935200A5
:100BE0008091500088608093500060E177E288E057
:100BF0000E94B605811551F080915500826C80935A
:100C0000550060E177E280E10C94B60580E008953C
:100C100098ED94BFE0E5F0E083818160838394BF29
:100C200084E08093400008950E94CC05811529F04E
:100C30000E94E70581E090E0089580E090E008954B
:100C40001F920F920FB60F9211240BB60F922F9393
:100C50003F934F935F936F937F938F939F93AF9344
:100C6000BF93EF93FF93E0E0F6E085818860858392
:100C70000E94E705FF91EF91BF91AF919F918F91F6
:100C80007F916F915F914F913F912F910F900BBE8C
:100C90000F900FBE0F901F90189587E392E2089572
:100CA0008091242008958091242022E1829FC00118
:100CB0001124419708950E945306BC016050704072
:100CC00042E150E087E392E20C94170789EF91E04C
:100CD0000E942307809324200C945B06809124209B
:100CE00022E1829FC00111240196089520912420C1
:100CF000622F6150770B860F972F911D6CE170E08A
:100D00000E94CD0661E0680F261721F089EF91E07F
:100D10000E9433070C946606EF92FF920F931F9385
:100D2000CF93DF93EC0180E0E82E80E0F82E8E0177
:100D3000060F171FC017D10741F4DF91CF911F9104
:100D40000F91FF90EF900C945B066991C7010E9490
:100D500033078FEFE81AF80AEDCF0E9414060E94BD
:100D60006606809101068E60809301060E9415013F
:100D70000E944A038091A20081608093A20080912A
:100D8000A20082608093A2008091A2008460809380
:100D9000A20078940E947B03FDCF97FB072E16F4E8
:100DA000009407D077FD09D00E94030707FC05D007
:100DB0003EF4909581959F4F0895709561957F4F72
:100DC0000895A1E21A2EAA1BBB1BFD010DC0AA1F8C
:100DD000BB1FEE1FFF1FA217B307E407F50720F0A4
:100DE000A21BB30BE40BF50B661F771F881F991F1F
:100DF0001A9469F760957095809590959B01AC0168
:100E0000BD01CF010895AA1BBB1B51E107C0AA1F5A
:100E1000BB1FA617B70710F0A61BB70B881F991F9B
:100E20005A95A9F780959095BC01CD010895E0EC05
:100E3000F1E0A785A7FDFDCFA485A860A487605039
:100E4000704F0C94560703D0808199270895E0ECE9
:100E5000F1E0378537FDFDCF348538603487FC01FC
:100E6000E050F04F0895262FE0ECF1E0378537FD94
:100E7000FDCF3485377F3487378531FF09C036E3AE
:100E8000328738ED34BF31E03387378537FDFDCF0A
:100E900033E33287808391831282248325E3228780
:100EA00028ED31E024BF338701960895FB01DC0172
:100EB00002C001900D9241505040D8F70895F89427
:020EC000FFCF62
:100EC20038083A083C083E0878087A0838093A098E
:100ED2003C093A0B3C0B3E0B3E0A780A7A0A380A66
:060EE2003A0A3C0A01007F
:00000001FF
